S014000052544F535F504F5254494E472E7372656346
S11300000C942A000C9447000C9447000C9447006D
S11300100C9447000C9447000C9447000C94470040
S11300200C9447000C9447000C9447000C94EF0682
S11300300C9447000C9447000C9447000C94470020
S11300400C9447000C9447000C9447000C94470010
S11300500C94470011241FBECFE5D8E0DEBFCDBF0E
S113006010E0A0E6B0E0E6E7F8E202C005900D92E9
S1130070AC36B107D9F716E0ACE6B0E001C01D928A
S1130080A83EB107E1F70E94690C0C9439140C9452
S11300900000AF92BF92CF92DF92EF92FF920F9344
S11300A01F93CF93DF936C01E62EF42E8AE190E048
S11300B00E940E048C01009709F462C080916C00C8
S11300C090916D00009739F510936D0000936C00CA
S11300D0CFE6D0E0CE010E94E704CE0109960E944B
S11300E0E704C1E8D0E0CE010E94E7040F2EFAE84D
S11300F0AF2EF0E0BF2EF02DC5010E94E70483E986
S113010090E00E94E704D0939D00C0939C00B092BD
S11301109F00A0929E00CE2DE110C1E0F801118E47
S1130120108EC68BF78AC192D1927F01CF010E94B3
S1130130F504C8010C960E94F504F80111870087A4
S1130140138B028B82E090E08C1B91099587848746
S1130150868990916E00981710F480936E0090E059
S11301609C01220F331F220F331F220F331F820FD4
S1130170931F81599F4FB7010E94F90481E001C088
S11301808FEFDF91CF911F910F91FF90EF90DF9050
S1130190CF90BF90AF9008950F931F93CF93DF93A9
S11301A08B01C091A000D091A100C80FD91F8091EC
S11301B06C0090916D0002960E944A05E0916C00DB
S11301C0F0916D00D383C2838091A0009091A1002F
S11301D0C817D90750F4BF016E5F7F4F80919E000E
S11301E090919F000E94180509C0BF016E5F7F4F68
S11301F080919C0090919D000E94180501151105A5
S113020049F060916C0070916D00645F7F4FC8018C
S11302100E941805DF91CF911F910F910895EF92DD
S1130220FF920F931F93CF93DF93809193008823C2
S113023091F10F2EF3E9EF2EF0E0FF2EF02DF8945C
S1130240E0919800F0919900C681D781CE010C9677
S11302500E944A0578948E010E5F1F4FC8010E94C8
S11302604A058E8990916E00981710F480936E0061
S113027090E09C01220F331F220F331F220F331FE4
S1130280820F931F81599F4FB8010E94F904F7010F
S113029080818823A1F60E94C40E2091A20030918F
S11302A0A300821B930B9093A5008093A40074C0B9
S11302B02091A0003091A1002F5F3F4F3093A10007
S11302C02093A00001979093A5008093A40021158A
S11302D0310581F480919C0090919D0020919E00B5
S11302E030919F0030939D0020939C0090939F0039
S11302F080939E00E0919C00F0919D008081882372
S113030009F44AC00580F681E02DC681D7812A818F
S11303103B818091A0009091A1008217930778F40B
S11303203BC00580F681E02DC681D7812A813B81BF
S11303308091A0009091A1008217930768F1F8942E
S11303408E010E5F1F4FC8010E944A058C899D894A
S1130350009721F0CE010C960E944A0578948E896C
S113036090916E00981710F480936E0090E09C01B9
S1130370220F331F220F331F220F331F820F931FAD
S113038081599F4FB8010E94F904E0919C00F091BB
S11303909D008081882329F68091A4009091A50076
S11303A0009709F085CF8091A0009091A1009093CF
S11303B0A3008093A20020916E00822F90E0FC01A4
S11303C0EE0FFF1FEE0FFF1FEE0FFF1FE80FF91FC9
S11303D0E159FF4F30813323D9F4222331F447C04C
S11303E0222319F420936E0042C02150822F90E002
S11303F0FC01EE0FFF1FEE0FFF1FEE0FFF1FE80FB4
S1130400F91FE159FF4F3081332351F320936E00DC
S1130410FC01EE0FFF1FEE0FFF1FEE0FFF1F8E0FED
S11304209F1FFC01E159FF4FA181B28112960D90EB
S1130430BC91A02DB283A183CF010396A817B9075D
S113044031F412968D919C9113979283818301804C
S1130450F281E02DA681B781B0936D00A0936C006A
S1130460ED91FC911197CD0157966C910995DF910F
S1130470CF911F910F91FF90EF9008950F931F93C9
S1130480CF93DF93DC011596ED91FC9116970681CD
S11304901781E8012C96CE010E944A0583E990E079
S11304A0BE010E94F904E0916C00F0916D0081E0BE
S11304B0D80156962C9156979689291708F480E00E
S11304C0DF91CF911F910F910895442341F4682344
S11304D0792381E06115710551F480E008959B0151
S11304E02823392381E06217730709F080E0089517
S11304F0CF93DF938BE090E00E940E04EC01009711
S113050031F0FC0111921192CF010E94E7048C2F6B
S11305109D2FDF91CF910895AF92BF92CF92DF923A
S1130520EF92FF920F931F93CF93DF935C016B01C4
S1130530E42EF22E0E94BE0EF501C081D181CE01BF
S1130540B6014F2D0E946502882351F0EE2001F17F
S1130550C094D094CC22DD22F501D182C08218C08F
S113056001151105A9F0EE2019F460E070E002C055
S113057060E071E0F11074606C297D29C501029678
S1130580A8010E94DD100E949C0F882339F404C046
S11305900E949C0FCE0121C00E9439060E94C51101
S11305A0EC0191FD18C00FB6F8940F92F501C081CB
S11305B0D181CE01B6014F2D0E946502882349F0F6
S11305C0EE2039F0C094D094CC22DD22F501D18202
S11305D0C0820F900FBECE019070DF91CF911F911A
S11305E00F91FF90EF90DF90CF90BF90AF90089560
S11305F0FC010FB6F8940F928081918160957095FB
S113060068237923718360830F900FBE0895FC01E2
S1130610808191810895AF92BF92CF92DF92EF9241
S1130620FF920F931F93CF93DF938C01EB010F2E57
S1130630F5E0CF2EDD24F02DC80ED91E0E94BE0E8B
S1130640D8011796ED91FC9118978D919C91119773
S11306508C2B9D2B11969C938E93CE16DF06C1F1A5
S1130660AA24BB24FF24F394EE2401C0FE01C2811A
S1130670D38180819181BC0160709C01307092FDB6
S11306800BC0D8018D919C911197822393234F2DF8
S1130690009769F44E2D0BC0D8018D919C91119750
S11306A0822393234F2D2817390709F04E2D442315
S11306B059F070FF02C0A22AB32AD8016D917C912F
S11306C07260CF010E944111CC16DD0679F602C09A
S11306D0AA24BB24C50180959095F801A080B1801F
S11306E0A822B922B182A0820E949C0FD8018C91C9
S11306F011969C911197DF91CF911F910F91FF90CB
S1130700EF90DF90CF90BF90AF900895AF92BF92DB
S1130710CF92DF92EF92FF920F931F93CF93DF93C9
S11307206C01EB017A0159010E94BE0EF6010081B1
S11307301181C601BE010E940B03C02BD12BC7013E
S11307408C239D238E159F0551F480959095F60179
S113075020813181822393239183808312C0A11449
S1130760B10461F0B7017560C6010296A5010E944B
S1130770DD100E949C0F882349F406C0F601C08155
S1130780D1810E949C0F1CC00E9439060E94C51191
S113079091FD14C00FB6F8940F92F60180819181F7
S11307A09701282339232E153F0531F420953095E0
S11307B028233923318320830F900FBEEC01D0709E
S11307C08C2F9D2FDF91CF911F910F91FF90EF9070
S11307D0DF90CF90BF90AF900895CF93DF93EC015B
S11307E00E94BE0E8A81882349F08F81988560E03B
S11307F072E00E9441118A818823B9F7CE010E94D8
S1130800AE040E949C0FDF91CF910895BA010E941B
S11308100B030895BA010E94F80208950F931F93E1
S1130820CF93DF93EC010E94BE0E8091A600882333
S1130830F9F480EB90E09093A8008093A7001092C5
S1130840AA001092A9008BED95E09093AE008093DE
S1130850AD00EDEAF0E0129212929093B30080930F
S1130860B200F093B100E093B00081E08093A60061
S1130870209709F462C09E012C5F3F4F239685E0C8
S1130880CA3DD80708F05CC0E091A700F091A80029
S1130890A7EAB0E002C0DF01FC01828193818217E4
S11308A0930720F4808191810097A9F7C0E0EB3A87
S11308B0FC0709F448C08D919C9111978C010C5F41
S11308C01F4F8081918111969C938E938281938195
S11308D0821B930B8930910518F1AF01420F531F0E
S11308E0DA0113969C938E93129733832283129684
S11308F02D913C91139767EA70E001C0BD01EB01B3
S1130900A881B98112968D919C91139782179307B0
S1130910A8F3EA01B983A883DB0111965C934E9393
S1130920809160009091610022813381821B930B3E
S1130930909361008093600008C000E010E005C05F
S113094000E010E002C000E010E00E949C0F802F45
S1130950912FDF91CF911F910F9108950F931F93C2
S1130960CF93DF93EC01009739F18C0104501040D0
S11309700E94BE0EF80122813381A7EAB0E001C0D3
S1130980DF01ED91FC911197828193818217930786
S1130990B8F32497F983E8830D931C938091600046
S11309A0909161002A813B81820F931F9093610093
S11309B0809360000E949C0FDF91CF911F910F9153
S11309C00895809160009091610008950895FC015C
S11309D00396928381832FEF3FEF3483238396839F
S11309E085839087878310820895FC011186108681
S11309F00895CF93DF93FB01DC011196CD91DC9137
S1130A001297D383C2832C813D8135832483AC81A7
S1130A10BD8113967C936E9312977D836C8391872B
S1130A208087FC0120812F5F2083DF91CF9108957F
S1130A30CF93DF93AC01EB01288139818FEF2F3FF6
S1130A40380721F4FA01A781B0850DC0DA011396A5
S1130A5001C0DF011296ED91FC9113978081918181
S1130A6028173907B0F71296ED91FC911397FB8381
S1130A70EA83D583C483BD83AC831396DC93CE937E
S1130A80129759874887FA0180818F5F8083DF91AD
S1130A90CF910895CF93DF93FC01C085D185A281C6
S1130AA0B3818481958115969C938E931497A48128
S1130AB0B5818281938113969C938E931297A98119
S1130AC0BA81AE17BF0731F414968D919C91159796
S1130AD09A838983118610868881815088838881CE
S1130AE0DF91CF91089521E1FC012083319732E217
S1130AF03083FC013297A3E3A083FC013397608326
S1130B00FC0134977083FC0135971082FC01369701
S1130B1060E86083FC0137971082FC01389762E03B
S1130B206083FC01399763E06083FC013A9764E0D9
S1130B306083FC013B9765E06083FC013C9766E0C1
S1130B406083FC013D9767E06083FC013E9768E0A9
S1130B506083FC013F9769E06083FC01709760E16A
S1130B606083FC0171972083FC01729722E120834A
S1130B70FC01739723E12083FC01749724E1208313
S1130B80FC01759725E12083FC01769726E12083FB
S1130B90FC01779727E12083FC01789728E12083E3
S1130BA0FC01799729E12083FC017A9720E22083D4
S1130BB0FC017B9721E22083FC017C973083FC01BC
S1130BC07D9723E22083FC017E974083FC017F977D
S1130BD05083FC01B09726E22083FC01B19727E201
S1130BE02083FC01B29728E22083FC01B39729E219
S1130BF02083FC01B49720E32083FC01B59721E313
S1130C002083869708951BBC89EF8ABD8BE08EBD37
S1130C1089B7806189BFA0918B06B0918C06CD9174
S1130C20CDBFDD91DEBFFF91EF91DF91CF91BF91F9
S1130C30AF919F918F917F916F915F914F913F9170
S1130C402F911F910F91FF90EF90DF90CF90BF9065
S1130C50AF909F908F907F906F905F904F903F9058
S1130C602F901F900F900FBE0F90089581E008956C
S1130C7008950F920FB6F8940F921F9211242F9299
S1130C803F924F925F926F927F928F929F92AF9218
S1130C90BF92CF92DF92EF92FF920F931F932F9305
S1130CA03F934F935F936F937F938F939F93AF93F0
S1130CB0BF93CF93DF93EF93FF93A0918B06B091F3
S1130CC08C060DB60D920EB60D920E946F10A09177
S1130CD08B06B0918C06CD91CDBFDD91DEBFFF9127
S1130CE0EF91DF91CF91BF91AF919F918F917F91C0
S1130CF06F915F914F913F912F911F910F91FF90B1
S1130D00EF90DF90CF90BF90AF909F908F907F90A7
S1130D106F905F904F903F902F901F900F900FBE59
S1130D200F9008950F920FB6F8940F921F9211240A
S1130D302F923F924F925F926F927F928F929F92E7
S1130D40AF92BF92CF92DF92EF92FF920F931F93D5
S1130D502F933F934F935F936F937F938F939F93BF
S1130D60AF93BF93CF93DF93EF93FF93A0918B0641
S1130D70B0918C060DB60D920EB60D920E94DE0E49
S1130D80882311F00E946F10A0918B06B0918C06FD
S1130D90CD91CDBFDD91DEBFFF91EF91DF91CF917A
S1130DA0BF91AF919F918F917F916F915F914F917F
S1130DB03F912F911F910F91FF90EF90DF90CF9073
S1130DC0BF90AF909F908F907F906F905F904F9067
S1130DD03F902F901F900F900FBE0F9008950E9488
S1130DE0920618950FB6F8940F92FC01928D0F900D
S1130DF00FBE81E0911180E00895FC010FB6F894D4
S1130E000F92228D0F900FBE81E0938D291380E005
S1130E1008950F931F93CF93DF93EC01142F0A8D42
S1130E204C8D4423B9F11123B1F48A819B8150E0A4
S1130E300E9430142C8D8A819B81820F911D9B838B
S1130E408A832C813D818217930720F188819981BF
S1130E509B838A831FC08E819F8150E00E9430143F
S1130E604C8D50E0509541955F4F8E819F81840F4A
S1130E70951F9F838E83288139818217930730F4CD
S1130E808C819D81840F951F9F838E83123011F472
S1130E90011101500F5F0A8F80E0DF91CF911F9104
S1130EA00F910895FC01448D4423C1F026813781BC
S1130EB0240F311D37832683A481B5812A173B076C
S1130EC020F0208131813783268336812781862F44
S1130ED0972F632F722F50E00E9430140895EF92E1
S1130EE0FF920F931F93CF938C010FB6F8940F9238
S1130EF0FC01C68D1C16CCF48189882331F415C0FD
S1130F00F8018189882341F410C00F2EF1E1EF2EFE
S1130F10FF24F02DE00EF11EC7010E94F610882375
S1130F2011F00E94C111C15059F78FEFF801868F5B
S1130F300F900FBE0FB6F8940F92F801C58D1C16D2
S1130F40C4F48085882331F414C0F8018085882393
S1130F5039F40FC0EE24FF246894E3F8E00EF11E88
S1130F60C7010E94F610882311F00E94C111C150DC
S1130F7061F78FEFF801858F0F900FBECF911F910E
S1130F800F91FF90EF900895CF93DF93EC010FB68C
S1130F90F8940F92488159812B8DEC8D30E0F0E06C
S1130FA02E9FC0012F9F900D3E9F900D1124840F02
S1130FB0951F9D838C831A8E5B834A83C901019795
S1130FC08E9F90018F9F300D9E9F300D1124240F12
S1130FD0351F3F832E838FEF8D8F8E8F662361F4B1
S1130FE08885882389F0CE0108960E94F61088230C
S1130FF059F00E94390608C0CE0108960E94E70401
S1131000CE0141960E94E7040F900FBE81E0DF916C
S1131010CF9108950F931F93CF93DF93082F162F2B
S1131020662321F0689FC001112402C080E090E093
S11310304F960E940E04EC01009771F0112319F4ED
S11310409983888303C04F96998388830B8F1C8F61
S1131050CE0161E00E94C4078C2F9D2FDF91CF91B8
S11310601F910F9108958F929F92BF92CF92DF921A
S1131070EF92FF920F931F93CF93DF9300D000D092
S11310800F92CDB7DEB78C014B015D834C83E22E0A
S1131090FF24BB24B394CC24DD246894C3F8C80E85
S11310A0D91E0FB6F8940F92F801928D838D98177C
S11310B018F0F2E0EF16D1F4C801B4014E2D0E94ED
S11310C00907F8019189992349F0C80141960E94C2
S11310D0F610882339F00E94390604C0882311F0E1
S11310E00E9439060F900FBE81E04CC08C819D8117
S11310F0009721F40F900FBE80E044C0FF2029F434
S1131100CE0101960E948911FB2C0F900FBE0E9404
S1131110BE0E0FB6F8940F92F801858D8F3F09F437
S1131120158EF801868D8F3F09F4168E0F900FBE31
S1131130CE010196BE016C5F7F4F0E9494118823FB
S1131140D9F4C8010E94FD06882381F06C817D8159
S1131150C6010E94CB10C8010E946F070E949C0F19
S1131160882309F09ECF0E9439069BCFC8010E94B4
S11311706F070E949C0F95CFC8010E946F070E94C1
S11311809C0F80E00F900F900F900F900F90DF91C5
S1131190CF911F910F91FF90EF90DF90CF90BF9070
S11311A09F908F900895EF92FF920F931F93CF9388
S11311B08C017A01FC01928D838D981710F02230F6
S11311C0F1F4F801C68DC801422F0E940907CF3FF0
S11311D089F4F80181898823A1F0C80141960E940D
S11311E0F610882381F0E114F10479F081E0F7012D
S11311F080830CC0CF5FF801C68F81E007C080E018
S113120005C081E003C081E001C081E0CF911F915E
S11312100F91FF90EF900895CF93DF93FC01EB01C2
S1131220828D938D8917B8F4968D8F5F828F9F3F3F
S113123071F48189882389F0CF0141960E94F610C8
S1131240882369F0209769F081E088830BC09F5F51
S1131250968F81E007C080E005C081E003C081E093
S113126001C081E0DF91CF9108958F929F92AF9258
S1131270BF92DF92EF92FF920F931F93CF93DF936E
S113128000D000D00F92CDB7DEB77C014B015D8357
S11312904C8300E0DD24D3940F2EF1E1AF2EBB2468
S11312A0F02DA80EB91E0FB6F8940F92F701128D07
S11312B01123B1F0C701B4010E9452071150F70184
S11312C0128F8085882341F0C70108960E94F6108A
S11312D0882311F00E9439060F900FBE81E052C09E
S11312E08C819D81009721F40F900FBE80E04AC04D
S11312F0002329F4CE0101960E9489110D2D0F902F
S11313000FBE0E94BE0E0FB6F8940F92F701858DA2
S11313108F3F09F4158EF701868D8F3F09F4168EE1
S11313200F900FBECE010196BE016C5F7F4F0E94ED
S113133094118823D9F4C7010E94F206882381F00E
S11313406C817D81C5010E94CB10C7010E946F078B
S11313500E949C0F882309F0A6CF0E943906A3CFD0
S1131360C7010E946F070E949C0F9DCFC7010E9476
S11313706F070E949C0FC7010E94F206882309F49C
S113138092CF80E00F900F900F900F900F90DF910D
S1131390CF911F910F91FF90EF90DF90BF90AF908E
S11313A09F908F900895CF92DF92EF92FF920F93C8
S11313B01F93CF93DF9300D000D00F92CDB7DEB749
S11313C08C017D836C83FF24EE24E3940F2EF1E1E2
S11313D0CF2EDD24F02DC80ED91E0FB6F8940F922F
S11313E0F801828D882389F08150828F808588233B
S11313F041F0C80108960E94F610882311F00E945B
S113140039060F900FBE81E052C08C819D810097F8
S113141021F40F900FBE80E04AC0FF2029F4CE01D2
S113142001960E948911FE2C0F900FBE0E94BE0EE1
S11314300FB6F8940F92F801858D8F3F09F4158E3D
S1131440F801868D8F3F09F4168E0F900FBECE01E2
S11314500196BE016C5F7F4F0E9494118823D9F4DA
S1131460C8010E94F206882381F06C817D81C60147
S11314700E94CB10C8010E946F070E949C0F882312
S113148009F0ABCF0E943906A8CFC8010E946F07AC
S11314900E949C0FA2CFC8010E946F070E949C0F5C
S11314A0C8010E94F206882309F497CF80E00F90C8
S11314B00F900F900F900F90DF91CF911F910F918C
S11314C0FF90EF90DF90CF900895AF92BF92CF92AC
S11314D0DF92EF92FF920F931F93CF93DF9300D08D
S11314E000D00F92CDB7DEB78C015B015D834C83D6
S11314F0FF24EE24E3940F2EF1E1CF2EDD24F02D12
S1131500C80ED91E0FB6F8940F92F801828D882365
S1131510C1F0E680F780C801B5010E945207F801C6
S1131520F782E6828189882341F0C80141960E94AE
S1131530F610882311F00E9439060F900FBE81E047
S113154052C08C819D81009721F40F900FBE80E0E2
S11315504AC0FF2029F4CE0101960E948911FE2C75
S11315600F900FBE0E94BE0E0FB6F8940F92F801B2
S1131570858D8F3F09F4158EF801868D8F3F09F410
S1131580168E0F900FBECE010196BE016C5F7F4F89
S11315900E9494118823D9F4C8010E94F20688237A
S11315A081F06C817D81C6010E94CB10C8010E942C
S11315B06F070E949C0F882309F0A4CF0E9439066C
S11315C0A1CFC8010E946F070E949C0F9BCFC80146
S11315D00E946F070E949C0FC8010E94F206882394
S11315E009F490CF80E00F900F900F900F900F9020
S11315F0DF91CF911F910F91FF90EF90DF90CF90EB
S1131600BF90AF900895EF92FF920F931F93CF93E3
S1131610DF938C017A01FC01C28DCC23E9F0D58DD6
S11316200E945207C150F801C28FDF3F81F48085C8
S11316308823A1F0C80108960E94F610882381F03F
S1131640E114F10479F081E0F70180830CC0DF5FDD
S1131650F801D58F81E007C080E005C081E003C0B8
S113166081E001C081E0DF91CF911F910F91FF9044
S1131670EF9008950F931F93CF93DF93EC018A8D1E
S1131680882349F00E811F81CE010E9452071F83D7
S11316900E8381E001C080E0DF91CF911F910F9113
S11316A008950FB6F8940F92FC01828D0F900FBE2F
S11316B00895FC010FB6F8940F92928D0F900FBE0F
S11316C0838D891B0895FC01828D08950E94AE04C8
S11316D00895FC01928D81E0911180E00895FC0150
S11316E0228D81E0938D291380E00895EF92FF927B
S11316F00F931F93CF93DF93EC017B018A01F8943E
S11317000E94FD06882379F00115110549F0BE01F8
S1131710685F7F4FC8010E94CC0078948CEF1FC093
S1131720789480E01CC07894F8949A8D8B8D9817E7
S113173080F4CE01B70140E00E940907898988231B
S113174051F0CE0141960E943E02882331F481E09B
S113175005C080E003C081E001C08BEF7894DF9185
S1131760CF911F910F91FF90EF900895CF93DF9346
S1131770EC01F8948A8D882379F44115510549F0D8
S1131780BE016F5E7F4FCA010E94CC0078948CEF3B
S113179035C0789480E032C07894F8948A8D882398
S11317A039F14C8D2E813F81240F311D3F832E83CF
S11317B0EC81FD812E173F0720F0888199819F835A
S11317C08E838A8D81508A8F3E812F81862F972F19
S11317D0632F722F50E00E9430148885882351F0C3
S11317E0CE0108960E943E02882331F481E005C0B0
S11317F080E003C081E001C08BEF7894DF91CF914A
S113180008951F93CF93DF93EC01142F9A8D8B8D42
S1131810981788F4CE0140E00E940907112359F477
S11318208989882341F0CE0141960E943E0211E04D
S1131830882309F410E0812FDF91CF911F9108953F
S11318400F931F93CF93DF93EC01862F972F8A0179
S11318502A8D222349F14C8D2E813F81240F311D85
S11318603F832E83EC81FD812E173F0720F02881D2
S113187039813F832E832A8D21502A8F6E817F8167
S113188050E00E943014F8018081882379F488851F
S1131890882371F0CE0108960E943E02882351F0FD
S11318A081E0F801808307C080E005C081E003C0C7
S11318B081E001C081E0DF91CF911F910F910895E4
S11318C0A79A85B3805885BB88EE93E00E941C10CC
S11318D0F8CFEF92FF920F9380E69CE062E670E00F
S11318E048EC50E020E030E001E0EE24FF240E94C8
S11318F01B0D0E948E0E80E090E00F91FF90EF9000
S11319000895E0919B06F0919C068081882339F428
S11319108FEF9FEF90938F0680938E060895E0914A
S11319209B06F0919C060580F681E02D0680F781E8
S1131930E02D8281938190938F0680938E06089583
S11319400F931F93CF93DF93EC01009195061091B1
S1131950960680918B0690918C0602960E944A0509
S1131960C00FD11FE0918B06F0918C06D383C28304
S1131970C017D10768F48091990690919A066091F6
S11319808B0670918C066E5F7F4F0E94180517C0FE
S113199080919B0690919C0660918B0670918C06B9
S11319A06E5F7F4F0E94180580918E0690918F067E
S11319B0C817D90720F4D0938F06C0938E06DF9101
S11319C0CF911F910F910895CF93DF93EC018F89ED
S11319D0988D0E94AE04CE010E94AE04DF91CF9197
S11319E008950EE916E01CC00FB6F8940F92E0912A
S11319F0E206F091E306C681D781CE0102960E94E9
S1131A004A058091970681508093970680919806A5
S1131A108150809398060F900FBECE010E94E40C73
S1131A2080919806882301F7F80180818230C0F301
S1131A300E943906F5CF2F923F924F925F926F9298
S1131A407F928F929F92AF92BF92DF92EF92FF921A
S1131A500F931F93CF93DF933C015B01EA012901AC
S1131A60D02E4701CA010E940E047C01009709F49C
S1131A70ECC086E290E00E940E048C01009759F0BD
S1131A80FC01F08EE78A219717012C0E3D1EA1144C
S1131A90B10431F41EC0C7010E94AE048FEFDAC056
S1131AA0F5018081F801818FF5018081882371F02F
S1131AB0E8016A96D501119681E0FD019D91999303
S1131AC09081992319F08F5F8830B9F7F80110A23B
S1131AD002C0FC01118ECD2DC43008F0C3E0F80122
S1131AE0C68BEE24FF246894E1F8E00EF11EC701D2
S1131AF00E94F504C8010C960E94F504F8011187B0
S1131B00008784E090E08C1B910995878487138B70
S1131B10028B11A212A213A214A215A2C101B30135
S1131B20A2010E947305F8019183808381149104BA
S1131B3019F0F401118300830FB6F8940F92809189
S1131B4097068F5F8093970680918B0690918C0601
S1131B500097D9F510938C0600938B068091970615
S1131B60813009F043C0C0E0D0E0CE01880F991F56
S1131B70880F991F880F991F8C0F9D1F8256994FAC
S1131B800E94E7042196C430D10579F7C2ECD6E06F
S1131B90CE010E94E7040F2EFBECAF2EF6E0BF2E21
S1131BA0F02DC5010E94E70484ED96E00E94E7044D
S1131BB08DED96E00E94E704D0939C06C0939B06AB
S1131BC0B0929A06A092990611C080919306882338
S1131BD069F4E0918B06F0918C069689F801868968
S1131BE0891720F010938C0600938B0680919D0634
S1131BF08F5F80939D06F8018689909194069817CB
S1131C0010F48093940690E09C01220F331F220F5E
S1131C10331F220F331F820F931F8256994FB70130
S1131C200E94F9040F900FBE80919306882379F0E7
S1131C30E0918B06F0918C069689F80186899817B5
S1131C4040F40E94390681E005C08FEF03C081E0B3
S1131C5001C081E0DF91CF911F910F91FF90EF9030
S1131C60DF90BF90AF909F908F907F906F905F9028
S1131C704F903F902F9008950F931F93CF93DF932E
S1131C800FB6F8940F92009729F4C0918B06D09167
S1131C908C0601C0EC018E010E5F1F4FC8010E942B
S1131CA04A058C899D89009721F0CE010C960E94EB
S1131CB04A0580919D068F5F80939D0680918B06D7
S1131CC090918C06C817D90759F48DED96E0B801A8
S1131CD00E94F904809198068F5F809398060AC049
S1131CE080919706815080939706CE010E94E40C60
S1131CF00E94810C0F900FBE80919306882349F0B7
S1131D0080918B0690918C06C817D90711F40E9414
S1131D103906DF91CF911F910F910895EF92FF92B1
S1131D200F9381EF9CE066E670E045E550E020E02B
S1131D3030E000E00F2EF6EEEF2EF6E0FF2EF02D51
S1131D400E941B0D813081F4F8948FEF9FEF9093E4
S1131D508F0680938E0681E08093930610929606F8
S1131D60109295060E9403060F91FF90EF9008953C
S1131D70F894109293060E943806089580918D0677
S1131D808F5F80938D0608950FB6F8940F9280911B
S1131D909506909196060F900FBE08958091950632
S1131DA0909196060895809197060895009721F4DE
S1131DB080918B0690918C0649960895CF92DF927C
S1131DC0EF92FF920F931F93CF93DF9380918D0631
S1131DD0882309F098C0C0909506D0909606089480
S1131DE0C11CD11CD0929606C0929506C114D10490
S1131DF0B9F480919B0690919C06209199063091AC
S1131E009A0630939C0620939B0690939A0680939F
S1131E109906809190068F5F809390060E94810CB2
S1131E2080918E0690918F06C816D90620F4FF245F
S1131E3054C0FE2C03C0FF24EE24E394E0919B06DF
S1131E40F0919C068081882339F48FEF9FEF909363
S1131E508F0680938E0641C0E0919B06F0919C060C
S1131E600580F681E02DC681D7818A819B81C816C1
S1131E70D90628F490938F0680938E062EC08E0187
S1131E800E5F1F4FC8010E944A058C899D890097E7
S1131E9021F0CE010C960E944A058E8990919406F9
S1131EA0981710F48093940690E09C01220F331F3E
S1131EB0220F331F220F331F820F931F8256994F15
S1131EC0B8010E94F904E0918B06F0918C069E897A
S1131ED08689981708F0ADCFB1CFE0918B06F091C9
S1131EE08C06868990E0FC01EE0FFF1FEE0FFF1FAA
S1131EF0EE0FFF1F8E0F9F1FFC01E256F94F8081EA
S1131F00823040F409C0809192068F5F80939206DC
S1131F10FF2402C0FF24F39480919106882311F0DA
S1131F20FF24F3948F2DDF91CF911F910F91FF9098
S1131F30EF90DF90CF900895DF92EF92FF920F938E
S1131F401F93CF93DF930FB6F8940F9280918D0671
S1131F50815080938D0680918D06882309F05FC09F
S1131F6080919706882391F55DC0E091D906F091A0
S1131F70DA06C681D781CE010C960E944A058E01ED
S1131F800E5F1F4FC8010E944A058E8990919406E6
S1131F90981710F48093940690E09C01220F331F4D
S1131FA0220F331F220F331F820F931F8256994F24
S1131FB0B8010E94F904E0918B06F0918C069E8989
S1131FC08689981768F0D09291060AC0C0E0D0E0E4
S1131FD00F2EF4EDEF2EF6E0FF2EF02DDD24D3943A
S1131FE0F7018081882309F6209711F00E94810C63
S1131FF0C0919206CC2359F001E00E94DE0E8823A2
S113200011F000939106C150C1F71092920680918D
S11320109106882331F00E94390681E003C080E0F4
S113202001C080E00F900FBEDF91CF911F910F91FF
S1132030FF90EF90DF900895CF93DF93EC0100972A
S113204051F00E94BE0ECE0160E00E94A00C0E94DE
S11320509C0F882311F40E943906DF91CF910895D3
S11320600F931F93CF93DF938C01EB010E94BE0E5D
S11320708091950690919606F80120813181C20FD6
S1132080D31F8217930748F4C217D307F8F4D183F8
S1132090C0838C179D0778F407C0C217D30790F04C
S11320A08C179D0778F012C09E01281B390BC901BB
S11320B060E00E94A00C0E949C0F882359F40E94A7
S11320C0390608C0F801D183C083EECFF801D1836B
S11320D0C083F1CFDF91CF911F910F91089580912B
S11320E08D06882321F081E0809391060895109253
S11320F0910620919406822F90E0FC01EE0FFF1FC1
S1132100EE0FFF1FEE0FFF1FE80FF91FE256F94F06
S11321103081332389F42150822F90E0FC01EE0FAB
S1132120FF1FEE0FFF1FEE0FFF1FE80FF91FE25610
S1132130F94F3081332379F3DC01AA0FBB1FAA0FB7
S1132140BB1FAA0FBB1F8A0F9B1FDC01A256B94FEE
S11321501196ED91FC9112970280F381E02D129675
S1132160FC93EE931197CD010396E817F90731F428
S11321708281938112969C938E9311971196ED917F
S1132180FC9112978681978190938C0680938B069D
S1132190209394060895CF93DF93EB0160918B060F
S11321A070918C06645F7F4F0E941805CE0161E038
S11321B00E94A00CDF91CF910895CF93DF93EA01A1
S11321C0E0918B06F0918C06706875876487609146
S11321D08B0670918C06645F7F4F0E94F904CE01D8
S11321E061E00E94A00CDF91CF9108950F931F939B
S11321F0CF93DF93DC011596ED91FC911697068140
S11322001781E8012C96CE010E944A0580918D0623
S11322108823E9F4E8012296CE010E944A05F801D8
S1132220868990919406981710F48093940690E010
S11322309C01220F331F220F331F220F331F820FE3
S1132240931F8256994FBE010E94F90405C084ED84
S113225096E0BE010E94F904E0918B06F0918C0691
S1132260D80156969C9156978689891720F481E067
S11322708093910601C080E0DF91CF911F910F916F
S113228008950F931F93CF93DF937068FC017183BC
S11322906083C681D7810E944A058E010E5F1F4F5D
S11322A0C8010E944A058E8990919406981710F4EB
S11322B08093940690E09C01220F331F220F331F5A
S11322C0220F331F820F931F8256994FB8010E9429
S11322D0F904E0918B06F0918C069E898689891712
S11322E018F481E080939106DF91CF911F910F91B3
S11322F00895FC010FB6F8940F92809190068083A4
S11323008091950690919606928381830F900FBEDB
S11323100895FC01809190068083809195069091A8
S11323209606928381830895FC01DB010FB6F8942D
S11323300F92209195063091960681819281409169
S113234090065081541719F028173907B0F4281B48
S1132350390B8D919C9111972817390748F4821BEA
S1132360930B8D939C93CF010E94891180E006C04A
S113237011961C921E9281E001C081E00F900FBE65
S1132380089581E0809391060895E0918B06F09181
S11323908C0684859585E0918B06F0918C06A0913E
S11323A08B06B0918C0656964C91569724E030E0FB
S11323B0241B31093587248708950F931F93CF93E6
S11323C0C82F0FB6F8940F92E0918B06F0918C060B
S11323D081A192A1A3A1B4A10097A105B10579F4AB
S11323E0E0918B06F0918C0681E085A3611571055F
S11323F031F0CB0161E00E94A00C0E9439060F90DD
S11324000FBE0FB6F8940F92E0918B06F0918C06F4
S113241001A112A123A134A1011511052105310542
S1132420C1F0CC2349F0E0918B06F0918C0611A207
S113243012A213A214A20DC0E0918B06F0918C0697
S1132440D901C8010197A109B10981A392A3A3A34A
S1132450B4A3E0918B06F0918C0615A20F900FBEE9
S1132460602F712F822F932FCF911F910F91089579
S11324708F929F92AF92BF92EF92FF920F931F930E
S1132480DC01CB0149015A010FB6F8940F92E09197
S11324908B06F0918C0625A1223019F1E0918B0670
S11324A0F0918C0641A152A163A174A180959095ED
S11324B0A095B09584239523A623B72381A392A343
S11324C0A3A3B4A3E0918B06F0918C0681E085A3CD
S11324D0E114F10431F0C70161E00E94A00C0E94F4
S11324E039060F900FBE0FB6F8940F92011511051F
S11324F069F0E0918B06F0918C0681A192A1A3A1D1
S1132500B4A1F80180839183A283B383E0918B0605
S1132510F0918C0685A18230B1F4E0918B06F091A4
S11325208C0681A192A1A3A1B4A180949094A094BB
S1132530B09488229922AA22BB2281A292A2A3A2A9
S1132540B4A281E001C080E0E0918B06F0918C069A
S113255015A20F900FBE1F910F91FF90EF90BF90A7
S1132560AF909F908F9008950F931F93CF93DF9315
S1132570EC010FB6F8940F920115110549F089A1E9
S11325809AA1ABA1BCA1F80180839183A283B383F8
S11325903DA182E08DA32230B9F0233018F421301C
S11325A051F505C02330E1F0243029F51EC089A17E
S11325B09AA1ABA1BCA1482B592B6A2B7B2B49A315
S11325C05AA36BA37CA317C089A19AA1ABA1BCA1F8
S11325D00196A11DB11D89A39AA3ABA3BCA30BC0F3
S11325E049A35AA36BA37CA306C0323071F149A35B
S11325F05AA36BA37CA3313051F58E010E5F1F4F9C
S1132600C8010E944A058E8990919406981710F487
S11326108093940690E09C01220F331F220F331FF6
S1132620220F331F820F931F8256994FB8010E94C5
S1132630F904E0918B06F0918C069E8986898917AE
S113264040F40E94390681E005C080E003C081E0C7
S113265001C081E00F900FBEDF91CF911F910F91C8
S11326600895EF92FF920F931F93CF93DF93EC01A2
S11326700115110549F089A19AA1ABA1BCA1F801EA
S113268080839183A283B3833DA182E08DA3223012
S1132690B9F0233018F4213059F505C02330E1F0A6
S11326A0243031F51EC089A19AA1ABA1BCA1842B11
S11326B0952BA62BB72B89A39AA3ABA3BCA318C0B5
S11326C089A19AA1ABA1BCA10196A11DB11D89A3A9
S11326D09AA3ABA3BCA30CC049A35AA36BA37CA32A
S11326E007C0323009F440C049A35AA36BA37CA3AA
S11326F03130E1F580918D068823E9F48E010E5F77
S11327001F4FC8010E944A058E899091940698171C
S113271010F48093940690E09C01220F331F220F43
S1132720331F220F331F820F931F8256994FB80114
S11327300E94F90407C0BE01645F7F4F84ED96E0F8
S11327400E94F904E0918B06F0918C069E8986899B
S1132750891770F4E114F10419F081E0F701808322
S113276081E08093910605C080E003C081E001C050
S113277081E0DF91CF911F910F91FF90EF90089529
S1132780EF92FF920F931F93CF93DF93EC018B0192
S11327902DA182E08DA389A19AA1ABA1BCA1019630
S11327A0A11DB11D89A39AA3ABA3BCA32130E1F55C
S11327B080918D06882301F5EE24FF246894E1F8C6
S11327C0EC0EFD1EC7010E944A058E899091940665
S11327D0981710F48093940690E09C01220F331F05
S11327E0220F331F220F331F820F931F8256994FDC
S11327F0B7010E94F90407C0BE01645F7F4F84EDF6
S113280096E00E94F904E0918B06F0918C069E8973
S11328108689891748F40115110519F081E0F8013A
S1132820808381E080939106DF91CF911F910F9176
S1132830FF90EF900895009729F4E0918B06F091B2
S11328408C0601C0FC010FB6F8940F9285A182306A
S113285019F415A281E001C080E00F900FBE089525
S1132860FB01DC0102C001900D9241505040D8F7A9
S10928700895F894FFCF67
S10F2876DB056C65640049444C4500001F
S9030000FC
